:020000040800F2
:100000000809002029020008531A0008971900085F
:10001000511A00081F04000879230008000000009E
:10002000000000000000000000000000FB210008AC
:10003000C505000800000000F9210008FD210008A6
:10004000430200084302000843020008430200087C
:10005000430200084302000843020008430200086C
:10006000430200084302000843020008430200085C
:10007000430200084302000843020008430200084C
:100080004302000843020008430200082D04000850
:10009000210400084302000843020008430200084C
:1000A00043020008A522000843020008430200089A
:1000B000430200084302000843020008430200080C
:1000C00043020008430200084302000843020008FC
:1000D00043020008430200084302000843020008EC
:1000E00043020008430200084302000843020008DC
:1000F00043020008430200084302000843020008CC
:1001000043020008430200084302000843020008BB
:1001100043020008430200084302000843020008AB
:10012000430200084302000843020008430200089B
:10013000430200084302000843020008430200088B
:10014000430200084302000843020008430200087B
:10015000430200084302000843020008430200086B
:10016000430200084302000843020008430200085B
:100170004302000843020008430200080000000098
:10018000430200084302000800F002F800F03CF8C7
:100190000AA090E8000C82448344AAF10107DA45E2
:1001A00001D100F031F8AFF2090EBAE80F0013F0F8
:1001B000010F18BFFB1A43F001031847F82C000089
:1001C000182D0000103A24BF78C878C1FAD8520719
:1001D00024BF30C830C144BF04680C6070470000C1
:1001E0000023002400250026103A28BF78C1FBD840
:1001F000520728BF30C148BF0B6070471FB502F0DF
:100200004BFE1FBD10B510BD00F0CFF81146FFF733
:10021000F5FF02F005F900F0EDF803B4FFF7F2FF87
:1002200003BC00F0F5F80000094880470948004782
:10023000FEE7FEE7FEE7FEE7FEE7FEE7FEE7FEE796
:10024000FEE7FEE704480549054A064B70470000F3
:1002500095220008890100080803002008090020F1
:10026000080500200805002053EA020C00F0698010
:100270002DE9F04B4FF00006002B1FBFB3FA83F5BA
:1002800003FA05F424FA05F65E4012BF1643B2FAEB
:1002900082F502FA05F4C5F120051EBF22FA05FC1D
:1002A00044EA0C04203556EA044C4FEA144418BFC3
:1002B000641C4FF000084FF00009904271EB030CF2
:1002C00039D3002919BFB1FA81F701FA07F6B0FA5C
:1002D00080F700FA07F6C7F120071EBF20FA07FCD7
:1002E00046EA0C062037B6FBF4FCA7EB0507103FE7
:1002F00007F01F0BCBF120060CFA0BFB2CFA06F6CD
:1003000044BFB3460026202FA4BF5E464FF0000B2B
:100310005BEA060C08BF4FF0010B19EB0B09ABFBB6
:10032000027C48EB0608C01B06FB02CC0BFB03CC8F
:1003300071EB0C01C1E70B46024641464846BDE859
:10034000F08B13B54FF000004FF00001AFF30080C9
:10035000BDE81C4070474FF0000200B513469446BC
:100360009646203922BFA0E80C50A0E80C50B1F10D
:100370002001BFF4F7AF090728BFA0E80C5048BF21
:100380000CC05DF804EB890028BF40F8042B08BFBF
:10039000704748BF20F8022B11F0804F18BF00F8BB
:1003A000012B7047704770477047754600F02CF876
:1003B000AE4605006946534620F00700854618B052
:1003C00020B5FFF73FFFBDE820404FF000064FF09B
:1003D00000074FF000084FF0000B21F00701AC467A
:1003E000ACE8C009ACE8C009ACE8C009ACE8C00999
:1003F0008D46704710B50446AFF300802046BDE837
:100400001040FFF70ABF000000487047A802002014
:1004100001491820ABBEFEE7260002007047FEE748
:10042000014800F04EBA000030010020014800F001
:1004300048BA00003001002038B50E4C4FF400756A
:1004400025600025A560E560082525610A4C050AA0
:1004500025706070080AA070E170100A2071627146
:10046000180AA071E3716B4622460249034800F066
:10047000BEF838BD18010020010000203001002026
:100480002DE9F04105462DED0A8B01260C46B0EE14
:10049000408AF0EE608A02270878E0B160789FED2C
:1004A00025BB9FED26AB9FED279B4FF0030801284E
:1004B00014D0022853EC192B51EC180B9FED23CBD1
:1004C00014D002F0BDFB25D8667085ED00CBBDECE5
:1004D0000A8BBDE8F08126704F70F8E753EC1A2BB9
:1004E00051EC180B02F072FA14D809E002F0A8FBE4
:1004F000EAD953EC1A2B51EC180B02F067FA04D826
:1005000084F8018085ED00BBE1E79FED120B85EDDE
:10051000000BDCE753EC192B51EC180B02F056FAE8
:10052000D5D253EC1A2B51EC180B02F089FBCED22A
:100530006770CCE7000000000000F0BF0000000082
:100540000088B3C0000000000088B3400000000035
:100550000000F03F000000000000000070B50646FB
:100560002DED028B0C460878B0EE418AF0EE618AE0
:10057000012580B11048617890ED002B012953ECE2
:10058000122B51EC100B09D002F020FA11D8657033
:10059000BDEC028B70BD25704D70F9E702F050FB89
:1005A00002D802206070F3E79FED040B86ED000B8C
:1005B000EEE786ED008BEBE7400000200000000036
:1005C00000000000704772B6FEE790F82020012A74
:1005D00007D0022A05D0416A41F4802141620120FE
:1005E0007047006842690A43426100207047F0B5D5
:1005F00090F820500468A468012D05D0022D03D086
:10060000416A41F480215DE014F0406F01D1E500C2
:1006100055D5C4F30164022C03D9416A41F40001A9
:1006200050E00125A5401D608D684FF4C0739DB159
:10063000CE6835434E6845EAC605066803EB0417E5
:10064000F5514FF4C275076805EB04150E697E512C
:10065000097D012905D009E00E88CD6845EA465597
:10066000EBE701684E5946F480764E511179D57901
:10067000567941EA056195792D0445EA0625294315
:100680004FF4C676056806EB0416A9511178D578A3
:1006900041EA0561957852782D0445EA022211431A
:1006A0004FF4C475026805EB04155151006803EB63
:1006B0000411425842F0010242500020F0BD416A4C
:1006C00041F4001141620120F0BD000010B590F826
:1006D0002020012A07D0022A05D0416A41F4802156
:1006E0004162012010BD3B48D0F8002242F00102D7
:1006F000C0F80022D0F8002222F47C52C0F8002278
:10070000D0F800224B6A42EA0322C0F800220A7D98
:1007100002F01F0301229A40D0F81C329343C0F824
:100720001C32CB69B3B9D0F80C329343C0F80C3209
:100730008C894B6864F31F434C6900EBC404C4F814
:1007400040320C890B6864F31F434C6900EBC4040E
:10075000C4F84432CB69012B16D1D0F80C321343C4
:10076000C0F80C320C884B6864F31F434C6900EBF3
:10077000C404C4F840320C89CB6864F31F434C694D
:1007800000EBC404C4F844328B69002BD0F8043267
:100790000ED01343C0F804320B69002BD0F814328A
:1007A00008D01343C0F81432096A012904D008E0C4
:1007B0009343EFE79343F5E7D0F81C121143C0F8D9
:1007C0001C12D0F8001221F00101C0F80012002024
:1007D00010BD000000640040704730B590F8204024
:1007E000012C05D0022C03D0416A41F480215DE048
:1007F0000468002955D02469A40754D04FF4D87454
:10080000056804EB01142D5915F004059560056881
:100810002D594ED0ED08556005682C5904F002049E
:10082000D4604FF4DA74056804EB01142D5905F017
:100830000F05156105682D59C5F3072595610568F4
:100840002C59240C54614FF4DC72046802EB011241
:10085000A4581C700468A458240A5C700468A45846
:10086000240C9C700468A258120EDA704FF4DE72E9
:10087000046802EB0112A4581C710468A458240AED
:100880005C710468A458240C9C710468A258120E70
:10089000DA71006881B1016941F020010161002035
:1008A00030BDE468A8E7416A41F4001141620120CB
:1008B00030BD6D0D1560AFE7C16841F02001C1602A
:1008C000EDE72DE9F05F0546006800244669D0F8A1
:1008D00004908768D0F80CB0D0F810A0D0F8188039
:1008E000F10748D0F90714D001218160B80703D57A
:1008F000284600F01AFA0CE0780702D54FF400649D
:1009000007E0380702D54FF4805402E0284600F093
:100910000BFAF80516D529684FF480708860B80581
:1009200003D5284600F003FA0CE0780502D544F41C
:10093000005407E0380502D544F4804402E028461C
:1009400000F0F4F9F80316D529684FF48030886078
:10095000B80303D5284600F0ECF90CE0780302D583
:1009600044F4004407E0380302D544F4803402E044
:10097000284600F0DDF9300707D55FEACB6004D5E3
:100980002968102044F40074C86070074FF008070D
:1009900007D55FEA0B7004D52868C760284600F0C9
:1009A0005FF9B00706D52868C068800702D02846DE
:1009B00000F058F9700607D55FEACA6004D52968C7
:1009C000102044F480640861B00607D55FEA0A701D
:1009D00004D528680761284600F076F9F00606D5A8
:1009E00028680069800702D0284600F06EF9B0033D
:1009F00008D55FEAC96005D52968102048602846F7
:100A000000F064F9F00307D55FEA097004D528689F
:100A10004760284600F08EF9300446D55FEA4970F9
:100A200040D5F00504D55FEAC87001D044F0010458
:100A3000B00504D55FEA887001D544F00204700562
:100A400004D55FEA487001D544F00404300529D587
:100A500018F0700F26D008F07000402815D006DC82
:100A6000102809D020280AD0302816D10AE05028B2
:100A70000ED0602811D10EE044F008040DE044F0DF
:100A800010040AE044F0200407E044F0400404E0CD
:100A900044F0800401E044F480742868816921F006
:100AA00070018161296804204860002C05D0686AC3
:100AB000204368622846FFF78FFEBDE8F09F70B5BF
:100AC000040003D094F8200010B104E0012070BDB0
:100AD000204600F081F82068016841F001010160C2
:100AE00000F022FA0546052604E000F01DFA401B3E
:100AF0000A2811D820684068C007F6D0206801682D
:100B000021F00201016000F00FFA05460BE000F051
:100B10000BFA401B0A2806D9606A40F40030606274
:100B200084F82060D2E7206840688007EFD4207EF8
:100B30000128206801683DD021F080010160607EBD
:100B400001282068016838D021F040010160A07EB2
:100B500001282068016833D021F020010160E07E87
:100B60000128206801682ED041F010010160207F2B
:100B700001282068016829D021F008010160607F08
:100B800001282068016824D021F004010160D4E923
:100B900002010843D4E90412114308436168491E65
:100BA00008432168C86100206062012084F82000A9
:100BB000002070BD41F08001C0E741F04001C5E771
:100BC00041F02001CAE721F01001CFE741F0080110
:100BD000D4E741F00401D9E710B586B004461421EA
:100BE0006846FFF7B8FB1B49206888422FD11A4896
:100BF0000021026842F000720260006800F000709C
:100C0000059015481038026842F00802026000683A
:100C1000022200F0080005900320CDE90210CDE982
:100C200000020920049069460C4800F085F8002273
:100C30000121132000F0E6F9132000F0D5F900227D
:100C40000121142000F0DEF9142000F0CDF906B0E7
:100C500010BD00000064004040380240000C02401B
:100C60007047000000B58BB001AB03AA0021FFF76D
:100C7000B4FD0398A0F20120062818D80F49C0B28D
:100C800008700F4901EB001001880181BDF80410C4
:100C900049BA0180BDF8061049BA4180BDF8081074
:100CA00049BA81809DF80A10817101F09DFB0221F3
:100CB0000448FFF78AFC0BB000BD000000000020D4
:100CC00098000020300100207047704770470000F6
:100CD00070B5044690F82000012804D0606A40F402
:100CE0000020606218E0022084F82000206801687B
:100CF00021F00101016000F017F905460EE000BF88
:100D000000F012F9401B0A2808D9606A40F400304C
:100D10006062052084F82000012070BD20684068D2
:100D2000C007EDD1606270BD704770477047704773
:100D300070477047704700002DE9F84FDFF8BCA1FD
:100D40000022012503264FF00F090AF1040BAAF136
:100D5000040E00BF0B6805FA02F42340A34270D1D1
:100D60000F7907F00307012F01D0022F16D18768F2
:100D70004FEA420806FA08FC27EA0C07D1F80CC033
:100D80000CFA08FC4CEA070CC0F808C04768A743F7
:100D90000C79C4F3001494403C4344600C79E44360
:100DA000A4070AD0C4684FEA420C06FA0CF7BC4309
:100DB0008F6807FA0CF72743C7600C7904F0030427
:100DC000022C12D1D40800EB840CDCF82040570729
:100DD000FF0E09FA07F824EA0804D1F8108008FA8F
:100DE00007F848EA0408CCF8208004684FEA420C6F
:100DF00006FA0CF7BC430F7907F0030707FA0CF764
:100E0000274307604C6814F4403F70D03C4C27687F
:100E100047F480472760246822F0030704F48044E5
:100E20000094384C07EB040CDCF8084897074FEAAD
:100E3000177809FA08F7BC43334FB84202D10027AC
:100E400024E054E0314FB84201D101271EE0304F79
:100E5000B84201D1022719E02E4FB84201D1032731
:100E600014E02D4FB84201D104270FE02B4FB842B8
:100E700001D105270AE02A4FB84201D1062705E033
:100E8000284FB84201D1072700E0082707FA08F7E2
:100E90002743CCF80878DAF800405746D1F804C068
:100EA0009C435FEACC2C00D51C433C60DBF800403F
:100EB0005F46D1F804C09C435FEA8C2C00D51C43EC
:100EC0003C60DEF800407746D1F804C09C435FEAFE
:100ED0008C3C00D51C433C60084F083F3C68D1F86F
:100EE00004C09C435FEACC3C00D51C433C60521CD0
:100EF000102AFFF42FAFBDE8F88F0000083C014036
:100F0000443802400030014000000240000402402A
:100F100000080240000C0240001002400014024091
:100F200000180240001C0240014880687047000021
:100F300030000020024881680278114481607047C7
:100F4000300000200B4810B5016841F400710160C9
:100F5000016841F480610160016841F480710160C1
:100F6000032000F06FF80F2000F006F800F024F8DE
:100F7000002010BD003C024070B50D4D04464FF4FA
:100F80007A712878B1FBF0F00A490968B1FBF0F0FA
:100F900000F0ECFA48B9102C07D200222146501E6E
:100FA00000F030F800206C6070BD012070BD0000C2
:100FB000300000203C0000200A4808B5016841F4D8
:100FC00080410160006800F4804000900548001FE7
:100FD000016841F080510160006800F0805000908D
:100FE00008BD000044380240002809DB00F01F0261
:100FF000012191404009800000F1E020C0F800117B
:1010000070470000F0B40E4B1B680C46C3F302237C
:10101000C3F10705042D00D90425191D072901D2A4
:10102000002300E0DB1E012606FA05F1491E2140DF
:1010300099409E40761E16403143F0BC01F09DB9A8
:101040000CED00E0064900F0070208684FF6FF03C8
:10105000184040EA0220034A10430860704700002D
:101060000CED00E00000FA052DE9F0470E46050002
:1010700065D0DFF81481D8F80000F7B200F007005F
:10108000B04207D288F80070D8F8000000F00700DE
:10109000B04254D128683D4C810712D5400703D592
:1010A000206840F4E05020602878000703D52068CD
:1010B00040F4604020602068A96820F0F0000843F8
:1010C00020602878C0072DD0304968680839012889
:1010D00012D0022813D0032811D0096889070029EB
:1010E0002DDA216821F0030101432160FFF71CFF85
:1010F000814641F2883A0EE009688903EFE7096802
:101100008901ECE7FFF710FFA0EB0901514502D977
:101110000320BDE8F0872068696800F00C00B0EBA0
:10112000810FEFD1D8F80010404601F00701B1421D
:1011300007D90770006800F00700B04201D0012015
:10114000E7E72878400705D52068E96820F4E050F3
:10115000084320602878000706D52068296920F414
:10116000604040EAC100206000F018F82168084A99
:10117000C1F30311515CC840064908600648006885
:10118000FFF7FAFE0020C4E7003C024008380240A6
:10119000A22E00083C00002034000020154810B5A5
:1011A000006810F00C02144813D01449042A0FD020
:1011B000082A0ED10F4C241F2268236802F03F0238
:1011C0005B0207D52068C0F38810A0FB010106E090
:1011D000084610BD2168C1F38811A1FB000100235E
:1011E000FFF742F82168C1F30141491C4900B0FBF7
:1011F000F1F010BD083802400024F40040787D0171
:101200002DE9F84F04006ED02078DFF84C93C0072A
:10121000A9F104054AD009F104000168C1F3810174
:10122000012908D00068C0F3810002280AD1D9F84A
:101230000000400206D52868800337D56068002882
:10124000E1D033E06068B0F5803F10D0B0F5A02F5A
:10125000286810D020F480302860286820F480208E
:1012600028606068A8B1FFF75FFE06460DE02868B9
:1012700040F48030F4E740F480202860F7E700BFB6
:10128000FFF752FE801B642873D828688003F7D5C7
:101290000CE0FFF749FE064605E000BFFFF744FEFD
:1012A000801B6428F0D828688003F7D42078DFF802
:1012B000AC8280074FF0000A3ED5A748001D0168A8
:1012C00011F00C0F08D00068C0F3810002280BD188
:1012D000D9F80000400207D42868800716D5E068D6
:1012E000012800D112E033E1E068B8B10120C8F86C
:1012F0000000FFF719FE064605E000BFFFF714FEE9
:10130000801B0228C0D828688007F7D52868216983
:1013100020F0F80040EAC10028600DE0C8F800A005
:10132000FFF702FE064604E0FFF7FEFD801B0228E1
:101330001FD828688007F7D42078000722D5864F69
:1013400087486169703771B101210160FFF7ECFDD9
:10135000064604E0FFF7E8FD801B022809D838683C
:101360008007F7D50EE0C0F800A0FFF7DDFD0646C8
:1013700005E082E0FFF7D8FD801B02287DD83868A1
:101380008007F7D42078400768D5DFF8CCB1002774
:101390000BF13C0BDBF80000C0000BD4DBF80010B5
:1013A00041F08051CBF80010DBF80000012700F07D
:1013B000805000906B4E3068C00510D4306840F407
:1013C00080703060FFF7B0FD009005E0FFF7ACFDE6
:1013D0000099401A022850D83068C005F6D55E4EF4
:1013E000A0686C3601280FD00528306810D020F096
:1013F00001003060306820F004003060A068B8B1AF
:10140000FFF792FD00900FE0306840F00100F4E734
:1014100040F004003060F7E7FFF786FD0099411ABD
:1014200041F28830814266D830688007F4D50EE0FA
:10143000FFF77AFD009007E0FFF776FD0099411A6B
:1014400041F28830814256D830688007F4D42FB1F9
:10145000DBF8001021F08051CBF80010A069C8B370
:101460003D49091D0968C1F3810102294AD00228BA
:10147000504607D0C8F8600000E03CE0FFF754FD9C
:1014800004463BE04746C8F86000FFF74DFD0646BE
:1014900005E000BFFFF748FD801B02282BD8286815
:1014A0008001F7D4D4E907010843A16A2E4A49080C
:1014B00002EB0141626A41EA8211084394F82C1060
:1014C00040EA0161C9F8001001203866FFF72CFDE1
:1014D000044606E03EE000BFFFF726FD001B0228A1
:1014E00009D828688001F7D534E000BFFFF71CFD5C
:1014F000001B022802D90320BDE8F88F286880016C
:10150000F4D427E00128F7D0D9F80000E26900F40C
:10151000800191421CD1226A00F03F01914217D113
:1015200047F6C071626A0140B1EB821F10D1A26A16
:101530004FF0FF3300F4403103EB5202B1EB024FA6
:1015400006D194F82C1000F07060B0EB016F01D060
:101550000120D1E70020CFE70438024000004742D5
:10156000800E4742007000400000FFFF10B5401E93
:10157000B0F1807F01D3012010BD4FF0E024606105
:101580000F21601700F0F9FE0020A0610720206104
:10159000002010BD7047704710B5040003D094F8C8
:1015A0003D0010B107E0012010BD002084F83C0090
:1015B000204600F01FF8022084F83D00211D20681D
:1015C00000F076FE012084F8460084F83E0084F89E
:1015D0003F0084F8400084F8410084F8420084F819
:1015E000430084F8440084F8450084F83D0000205E
:1015F00010BD000008B500680B49884212D10B48A5
:10160000016841F4003101600068002200F40030FC
:10161000009011461920FFF7F5FCBDE8084019209D
:10162000FFF7E2BC08BD000000440140443802401E
:1016300090F83D10012901D001207047022180F867
:101640003D100168CA6842F00102CA600068114991
:10165000884214D0B0F1804F11D00F4988420ED08B
:101660000E4988420BD00E49884208D00D49884265
:1016700005D00D49884202D00C49884204D18168C6
:1016800001F00701062903D0016841F00101016062
:1016900000207047000001400004004000080040A6
:1016A000000C0040000401400040014000180040D0
:1016B000704770B50446006801694FF00005C943E2
:1016C000890715D4C168C943890711D4E91E01618E
:1016D00001202077206880698007204602D0FFF72C
:1016E000E7FF04E000F098F8204600F096F8257730
:1016F00020680169C943490717D4C168C94349072C
:1017000013D46FF004010161022020772068806902
:1017100010F4407F204602D0FFF7CAFF04E000F03B
:101720007BF8204600F079F8257720680169C943E5
:10173000090716D4C168C943090712D46FF008011C
:101740000161042020772068C0698007204602D00C
:10175000FFF7AEFF04E000F05FF8204600F05DF810
:10176000257720680169C943C90617D4C168C943F0
:10177000C90613D46FF0100101610820207720689A
:10178000C06910F4407F204602D0FFF791FF04E0CB
:1017900000F042F8204600F040F825772068016903
:1017A000C943C90708D1C168C943C90704D1891E03
:1017B0000161204600F032F820680169C94309063A
:1017C00009D4C168C943090605D46FF080010161DD
:1017D0002046FFF7DFFE20680169C943490609D4A6
:1017E000C168C943490605D46FF040010161204634
:1017F00000F0D0F820680169C94389060BD4C1689C
:10180000C943890607D46FF0200101612046BDE875
:101810007040FFF7C0BE70BD704770472DE9F041C2
:1018200049492DED028B88427ED19FED480B494CF2
:10183000494E84ED040B3568B5F9020001F09BF8C0
:10184000C4E90001288801F0ADF8C4E90601B5F942
:10185000080001F090F8414DC4E90801DFF8088163
:1018600095ED060B84ED020B9FED3D0B84ED0A0B0D
:1018700098ED000B51EC100B01F04EF89FED3B0B77
:10188000686053EC102B95ED040B51EC100B01F03C
:10189000D9F89FED381B53EC112B01F0D3F89FEDD5
:1018A000371B53EC112B01F0CDF89FED361B53EC99
:1018B000112B00F0D9FE01F02FF89FED340BA8603A
:1018C00084ED100B76680746B6F9020001F053F874
:1018D000C4E90C01308801F065F8C4E91201B6F9D9
:1018E000080001F048F8C4E91401384601F043F853
:1018F000C4E90E01F06801F03EF841EC180B84EDEC
:10190000168B98ED080B51EC100B01F005F82860D0
:1019100051EC180B01F000F8F06000F0A9F82888ED
:1019200000231A4601B200E009E0A88800B2FEF7E1
:1019300083FDBDEC028BBDE8F04100F0CBBDBDECFA
:10194000028BBDE8F081000058010020000000007B
:101950000000F03F180200200801002010000020C5
:1019600000000000000000007802002000000000DD
:10197000000042400000000000FFBF4000000000E7
:10198000008047400000000000E8B7400000000071
:10199000000000407047FEE70F4810B50D49016098
:1019A0000321416000214FF400228160C0E903124D
:1019B0004FF440124261017641768176C17601771B
:1019C0004177FFF77CF8002803D0BDE81040FEF710
:1019D000FABD10BD00640040300100200D4808B57C
:1019E000016841F080010160016801F0800100910F
:1019F000016841F001010160016801F001010091FD
:101A0000016841F008010160006800F008000090E2
:101A100008BD0000303802400C4810B50A4901608A
:101A2000A7214160002140F2E732C0E902120161C2
:101A300080218161FFF7B0FD002803D0BDE8104090
:101A4000FEF7C1BD10BD0000004401405801002058
:101A5000FEE7FEE703489FED040B80ED040B80EDED
:101A6000020B7047A00100200000000000000000F1
:101A7000F0B52DED108B83B0FE4F97ED040B51ECBC
:101A8000100B00F049FF9FEDFCBB9FEDFD8BFE4E60
:101A9000A7F178049FEDFD9B9FEDFEAB394604F165
:101AA000D80591ED02CB012802D0022874D174E050
:101AB00097ED000B51EC1C0B53EC102B01F002F9CD
:101AC00041EC1C0B96ED060B53EC1C2B51EC100B50
:101AD00000F0B8FF94ED1A1B53EC112B01F0F2F853
:101AE0009FEDEE1B53EC112B00F0ACFF96ED120BAB
:101AF00041EC1D0B53EC1C2B51EC100B00F0A2FF22
:101B000094ED1C1B53EC112B00F0FAFC53EC1D2B35
:101B100000F0F6FC41EC100B53EC192B8DED000B93
:101B200001F08EF804D2B0EE490AF0EE690A0FE037
:101B30009DED000B53EC1A2B51EC100B00F046FFFF
:101B400004D2B0EE4A0AF0EE6A0A01E09DED000B05
:101B500053EC1B2B85ED000B51EC1D0B00F072FFBD
:101B600094ED1A1B53EC112B00F0CAFCC4E91A01C6
:101B700096ED0C0B53EC1C2B51EC100B00F062FF9C
:101B800053EC1B2B00F05EFF94ED1C1B53EC112B50
:101B900000F0B6FCC4E91C0144E197ED0A0B9FED8F
:101BA000C11B51EC100B53EC112B00F04BFF97EDC8
:101BB000061B53EC112B00F0A3FC53EC1C2B01F083
:101BC00075F841EC1C0BB0EE4C0AF0EE6C0A00F01C
:101BD000E4FBB0EE40DAF0EE60DA96ED000B51EC8B
:101BE0001D0B53EC102B00F0F1FE03D8B0EE48CAE9
:101BF000F0EE68CA96ED020B53EC1C2B51EC100B67
:101C000000F020FF94ED141B53EC112B01F05AF857
:101C10009FEDA2FB53EC1F2B00F014FF96ED000B81
:101C200041EC1E0B53EC102B51EC1D0B01F008F88E
:101C300041D296ED0E0B53EC1C2B51EC100B00F027
:101C400001FF94ED121B53EC112B00F059FC53ECE7
:101C50001E2B00F055FC41EC100B53EC192B8DEDB5
:101C6000000B00F0EDFF04D2B0EE490AF0EE690A75
:101C70000CE09DED000B53EC1A2B51EC100B00F017
:101C8000A5FE05D2B0EE4A0AF0EE6A0A8DED000B11
:101C900096ED140B9DED001B51EC100B53EC112B2A
:101CA00000F0D0FE97ED001B53EC112B01F00AF869
:101CB00041EC1D0B03E0B0EE48DAF0EE68DA96ED89
:101CC000040B53EC1D2B51EC100B00F0BBFE94EDFC
:101CD000161B53EC112B00F0F5FF53EC1F2B00F0FB
:101CE000B1FE96ED100B41EC1F0B53EC1D2B51EC8C
:101CF000100B00F0A7FE94ED181B53EC112B00F015
:101D0000FFFB53EC1F2B00F0FBFB41EC100B53ECE3
:101D1000192B8DED000B00F093FF04D2B0EE490AB1
:101D2000F0EE690A0FE09DED000B53EC1A2B51EC1D
:101D3000100B00F04BFE04D2B0EE4A0AF0EE6A0A35
:101D400001E09DED000B85ED020B97ED081B97ED73
:101D5000060B53EC112B51EC100B00F0B3FF41ECD0
:101D6000100B4448A11D6838FEF78AFB97ED0A1B4B
:101D700094ED040B53EC112B51EC100B00F0C0FB55
:101D8000C5E90401B0EE480AF0EE680A211D684674
:101D9000B0EE401AF0EE601AFEF7E0FB96ED080B8D
:101DA00053EC1C2B51EC100B00F04CFE53EC1B2B96
:101DB00000F048FE94ED121B53EC112B00F0A0FB39
:101DC000C4E9120153EC1B2B51EC1E0B00F03AFE40
:101DD00094ED141B53EC112B00F092FBC4E9140199
:101DE00053EC1B2B51EC1F0B00F02CFE94ED161B3B
:101DF00053EC112B00F084FBC4E9160196ED0A0B9D
:101E000053EC1D2B51EC100B00F01CFE53EC1B2B64
:101E100000F018FE94ED181B53EC112B00F070FB32
:101E2000C4E9180197ED100B51EC100B00F074FD94
:101E300001287CD002287BD197ED160B9FED191B52
:101E400051EC100B53EC112B00F0FCFD97ED121B25
:101E500053EC112B00F054FB97ED0E1B53EC112BA0
:101E600000F024FF41EC1C0BB0EE4C0AF0EE6C0AC3
:101E70001CE0000018020020FCA9F1D24D62503F86
:101E800000000000000000004000002000000000F2
:101E90000000D040000000000000D0C000000000A2
:101EA000000059400000000000FFBF4000F075FA3C
:101EB000B0EE40DAF0EE60DA96ED000B51EC1D0B5F
:101EC00053EC102B00F082FD03D8B0EE48CAF0EEC0
:101ED00068CA96ED020B53EC1C2B51EC100B00F072
:101EE000B1FD94ED081B53EC112B00F0EBFE1FED40
:101EF00015FB53EC1F2B00F0A5FD96ED000B41ECFC
:101F00001E0B53EC102B51EC1D0B00F099FE6ED202
:101F100096ED0E0B53EC1C2B51EC100B00F092FDC8
:101F200094ED061B53EC112B00F0EAFA01E012E0ED
:101F300084E053EC1E2B00F0E3FA41EC100B53EC61
:101F4000192B8DED000B00F07BFE7CD2B0EE490A20
:101F5000F0EE690A84E097ED0C0B97ED0E1B53EC45
:101F6000102B51EC110B00F0ADFE41EC180B96ED6F
:101F7000040B53EC182B51EC100B00F063FD94EDA7
:101F80000E1B53EC112B00F09DFE1FED3C1B53EC80
:101F9000112B00F057FD96ED100B41EC1C0B53EC90
:101FA000182B51EC100B00F04DFD94ED101B53EC71
:101FB000112B00F0A5FA53EC1C2B00F0A1FA41EC18
:101FC000100B53EC192B8DED000B00F039FE02D2F3
:101FD00085ED069B10E09DED000B53EC1A2B51ECA8
:101FE000100B00F0F3FC03D285ED06AB04E04CE0EF
:101FF0009DED000B85ED060B53EC1B2B51EC1C0BE0
:1020000000F020FD94ED0E1B53EC112B00F078FA3C
:10201000C4E90E0196ED0A0B53EC182B51EC100B92
:1020200000F010FD53EC1B2B00F00CFD94ED101B89
:1020300053EC112B00F064FAC4E9100103B0BDECBD
:10204000108BF0BDFFE79DED000B53EC1A2B51EC0C
:10205000100B00F0BBFC05D2B0EE4A0AF0EE6A0AA3
:102060008DED000B96ED140B9DED001B51EC100B4C
:1020700053EC112B00F0E6FC97ED0C1B53EC112BED
:1020800000F020FE41EC1D0B03E0B0EE48DAF0EE6C
:1020900068DA96ED040B53EC1D2B51EC100B00F09D
:1020A000D1FC94ED0A1B53EC112B00F00BFE53EC0A
:1020B0001F2B00F0C7FC96ED100B41EC1F0B53ECEF
:1020C0001D2B51EC100B00F0BDFC94ED0C1B53ECE0
:1020D000112B00F015FA53EC1F2B00F011FA41EC14
:1020E000100B53EC192B8DED000B00F0A9FD02D263
:1020F00085ED089B0FE09DED000B53EC1A2B51EC86
:10210000100B00F063FC02D285ED08AB03E09DEDFF
:10211000000B85ED080B97ED141B97ED120B53EC9C
:10212000112B51EC100B00F0CDFD41EC100BA11C5C
:102130003048FEF7A5F997ED161B94ED020B53EC12
:10214000112B51EC100B00F0DBF9C5E90A0129490C
:10215000B0EE480AF0EE680A08396846B0EE401A58
:10216000F0EE601AFEF7FAF996ED080B53EC1C2B13
:1021700051EC100B00F066FC53EC1B2B00F062FCE2
:1021800094ED061B53EC112B00F0BAF9C4E90601DB
:1021900053EC1B2B51EC1E0B00F054FC94ED081B70
:1021A00053EC112B00F0ACF9C4E9080153EC1B2BE4
:1021B00051EC1F0B00F046FC94ED0A1B53EC112B65
:1021C00000F09EF9C4E90A0196ED0A0B53EC1D2BB1
:1021D00051EC100B00F036FC53EC1B2B00F032FCE2
:1021E00094ED0C1B53EC112B00F08AF9C4E90C019F
:1021F00024E70000A801002070477047FEF79ABE50
:1022000030B593B030216846FEF7A5F814210CA82C
:10221000FEF7A1F81D480025016841F080510160DA
:10222000006800F0805011901948016841F4804125
:1022300001600068022400F48040119001200390A6
:1022400010200490009406940820CDE90750A8209F
:10225000CDE9090404200B906846FEF7D1FF08B1D0
:1022600072B6FEE70CA90F2081E831004FF4A050B0
:102270000F904FF48050109005210CA8FEF7F4FE4B
:10228000002801D072B6FEE713B030BD40380240DE
:10229000007000400248016841F47001016070471D
:1022A00088ED00E00148FFF704BA00005801002063
:1022B000F0B50268254C264D264E274F274B4FF090
:1022C000804CA04209D0604507D0A84205D0B0425A
:1022D00003D0B84201D0984204D122F0700E4A686F
:1022E00042EA0E02A0421BD0604519D0A84217D086
:1022F000B04215D0B84213D0984211D0184DA84220
:102300000ED0184DA8420BD0174DA84208D0174D3B
:10231000A84205D0164DA84202D0164DA84203D1BE
:1023200022F44075CA682A434D6922F080022A438C
:1023300002608A68C2620A688262A04201D0984242
:1023400001D10969016301214161F0BD0000014033
:102350000004004000080040000C00400004014060
:102360000040014000440140004801400018004086
:10237000001C004000200040FEE70907090E00286D
:1023800004DB00F1E02080F80014704700F00F003B
:1023900000F1E02080F8141D70472DED020B01982C
:1023A00020F0004001909DED000B02B0704700004E
:1023B00000B58BB000200121CDE906010891009005
:1023C0000190029003900590049069460548FEF73D
:1023D0007DF90448FEF77CFC02210248FEF7F5F87F
:1023E0000BB000BD300100200188B0F90820891A27
:1023F00041F28832914202DDC168491E05E041F296
:102400008832D14202DAC168491CC16070470000BD
:10241000024900F0030001EB001070479800002013
:10242000FEF790FDFFF7ECFEFFF7D8FAFFF7B4FADE
:10243000FFF7F2FAFFF70EFB1748FFF7F9F8FFF77F
:10244000B7FF1648FEF744FC02211448FEF7BDF81A
:1024500015489FED130B9FED151B80ED100B9FEDA5
:10246000152B80ED0A1B80ED042B80ED0E0B9FEDEC
:10247000133B80ED081B80ED023B80ED120B80EDDD
:102480000C1B9FED100B80ED062B80ED000B9FEDDC
:102490000F0B80ED140BFEE75801002030010020E7
:1024A000000000000000E03F4000002033333333E1
:1024B0003333D33F00000000000000009A9999993F
:1024C0009999B93F0000000000E08540000000003D
:1024D0000000F03F00B50020FFF79AFF074A1060A8
:1024E0000120FFF795FF50600220FFF791FF9060F9
:1024F0000320FFF78DFFD06000BD00000801002021
:1025000010B591EA030F48BF83F0004300F1E28366
:10251000841A71EB030C05D2121943EB0C03001B58
:1025200061EB0C01DFF824E14FEA1154A4EB135CDA
:102530001EEA430F18BF9EEA445F73D023EA0E03DE
:10254000DCF1200E21EA045143F4801332D322FA45
:102550000CFE10EB0E0023FA0CFE41EB0E01CCF149
:10256000200E03FA0EFE10EB0E0051F10001B1F542
:10257000801FCCF1200E32D201EB045112FA0EF280
:10258000BDE8104058BF7047401C38BF5FEA4202A8
:1025900018BF7047002814BF20F0010041F100016E
:1025A0004FEA410313F5001F38BF7047A1F1C04146
:1025B00000F040BB012A43EB0302ACF1200CDCF13C
:1025C0001F0E32BF4FF0000E23FA0CF310EB030086
:1025D00041EB0451B4EB115FD0D0A1EB045101F5F4
:1025E000801149085FEA300001EB04510ED350F12D
:1025F000000038BF12FA0EFE08D1BDE81040C9E74E
:10260000401C38BF5FEA4202CAD1C3E7BDE81040B0
:102610004FEA410313F5001F38BF7047A1F1C041D5
:1026200000F008BB9EEA445F08D011EA5E0FBDE8E7
:10263000104004BF01F0004100207047BDE8104089
:1026400070B500F0A9FA00BF64FBBE3E0000E0FFD9
:10265000491058BFC1F140415B1058BFC3F140431E
:102660008B42EFF3008070472DE9C04130B4DFF8B2
:10267000A0C23CEA111418BF3CEA131400F0EC802D
:1026800081EA03051CEA111444EAD57418BF1CEA58
:10269000131500F0C780A4EB05044FF0004545EA90
:1026A000C12145EAC32341EA505143EA525304F1A0
:1026B0007F74994204F500344FEAC0204FEAC222E9
:1026C00008BF904200F09C804FEA13650FF240165D
:1026D000765D4FEA134506FB05F7C7F1807706FBE9
:1026E00007F74FEAD737A7FB03687642C8F580386B
:1026F000A7FB06CE38BFA8F1010807FB08E64FF09C
:10270000000EA6FB028CE6FB03CEDCF1000CCEF142
:10271000004E38BFAEF1010EA6FB0C584FF000077B
:102720004FF00005E6FB0E87A1FB08C6A0FB07CE15
:1027300016EB0E0645F10005E1FB076515F1E04ECD
:102740007EBFA4F580345FEA46066D4116F180072E
:1027500045F100054FEA17274FEA066647EA056785
:10276000A6F1DE46B6F1805F4FEA15251FD938463F
:1027700024F0010C05EBC471BCF1FE6F01EB0C11F0
:1027800002D8F0BCBDE8008124425CBF01F5801E88
:102790009EEAC47F02D4F0BCBDE80081244238D454
:1027A000F0BCA1F1C041BDE8004100F043BA4FEADE
:1027B000D22242EA43524FEAD323A7FB02864FEAD2
:1027C000D02040EA415007FB03661EEA0E0F4FEA95
:1027D000D12105FB026658BFA6EB0056B6EB0056AA
:1027E0004FEA520E4EEAC37E18EB0E0E56EB530E16
:1027F000BDD518EB02085E417F1C55F10005B6E718
:102800004FF480154FF000074FF000064FF000081E
:10281000ADE7F0BC4FF0000001F1C04101F0004114
:10282000BDE8008111EA0C1F0CEA131500D00CE082
:1028300013EA0C1F00F025804FF00000F0BC81EA85
:10284000030101F00041BDE80081F0BCBDE800419A
:1028500081EA030100F0EEB9F0BCBDE8004170B5BB
:1028600000F09AF9097EFC3E00F007B881EA030106
:102870004FF0000001F00041704781EA030100F0D1
:10288000D9B9F0BCBDE800414FF0000021497047C4
:10289000FFFDFBF9F7F5F4F2F0EEEDEBE9E8E6E425
:1028A000E3E1E0DEDDDBDAD8D7D5D4D3D1D0CFCDAC
:1028B000CCCBCAC8C7C6C5C4C2C1C0BFBEBDBCBBE5
:1028C000BAB9B8B7B6B5B4B3B2B1B0AFAEADACABE0
:1028D000AAA9A8A8A7A6A5A4A3A3A2A1A09F9F9EBA
:1028E0009D9C9C9B9A99999897979695959493936C
:1028F000929191908F8F8E8E8D8C8C8B8B8A898903
:102900008888878786858584848383828281818085
:102910000000FF070000F87F4FEA41034FEA5353DE
:10292000A3F58063D3F11E03C8BFD3F1210C0CDDE6
:102930004FF0004242EAC12242EA505232FA03FC0E
:102940008CEAE17CACEBE1707047102BC4BF002037
:10295000704703F5787CBCF1FF3F04D06FF0004274
:1029600082EA2100704770B500F016F94992248080
:1029700000207047F2E710F0004248BF4042B0FA32
:1029800080F310FA03F10AD0C3F11D0303F580634D
:102990004FEA415002EB035202EBD12170474FF056
:1029A00000007047B0FA80F310FA03F10AD0C3F1C7
:1029B0001D0303F580634FEA41504FEA035202EBD7
:1029C000D12170474FF000007047000051EA030C1E
:1029D00017D41CF5801F58BFBCF5801F00F106807E
:1029E000994218BF704708BF9042704707D711F54A
:1029F000801F58BF13F5801F19D499427047894230
:102A000070471CF5801F08D5BCF5801FF7D58B4299
:102A100018BF704708BF824270474FF4001C1CEB80
:102A2000410F38BF1CEB430F01D28B42704770B58A
:102A300000F0B2F8922449004FF000514FF080535B
:102A4000FFF706BEDFF848C170B51CEA111E1EBFB5
:102A50001CEA13159EEA0C0F95EA0C0F00F06F802C
:102A600081EA030423EA4C134EEAD47E21EA4C1196
:102A700041F4801143F48013AE44A1FB024CA0FB4F
:102A80000365AEF17F7E361955EB0C05A1FB034CB7
:102A90004CF10003A0FB021C16EB0C06654153F140
:102AA0000003094218BF46F0010613F4007F0BD162
:102AB0004FEA03314FEA0530340341EA155140EA49
:102AC00016506FF003020AE04FEAC3214FEAC52017
:102AD000F40241EA555140EA56506FF0020202EB0F
:102AE0002E4201EB025585EACE710AD05FEA440C12
:102AF00018BF24F0004450F1000041F1000120EA29
:102B0000D47040F2FE7C624500D270BDA84214BF72
:102B10004FF080444FF04044002E08BF0024BEF127
:102B2000806FA8BFA1F1C041BDE8704080F28280F3
:102B30004FF0000001F1C04101F0004170479EEAF2
:102B40000C0F0CEA131518BF95EA0C0F06D04FF0C6
:102B5000000081EA030E0EF0004170BD00F01CF889
:102B60008900013E00F007B800F009B84FEA430CB5
:102B70005FEA5C5C08D081EA030100F05BB84FEAD1
:102B8000410C5FEA5C5CF6D14FF0000001497047F0
:102B90000000FF070000F87F0EF1020E2EF0030E7A
:102BA0005EF8046B364205D4012A43EB030515F5A4
:102BB000001F12D8012841EB010C1CF5001F0CD896
:102BC0000ED14FEAD17C15F5001F0CEB4C0C0CF12B
:102BD000020C08BF4CEBD37C04E04FF0080C01E082
:102BE0004FEAD37C0CEB4C0526FA05F606F00706F7
:102BF000B6F1040C06D20EEB860CBDE870404CF02A
:102C0000010C6047DFE80CF0090B02024FF00041B5
:102C10004FF00000A1F5002170BD194610460128B3
:102C200051EB010418BFD4F5001484BF002001F05B
:102C3000004170BD0808A0F500114FEA310170474E
:102C400053EA010C17D41CF5801F58BFBCF5801F38
:102C500000F106808B4218BF704708BF8242704760
:102C600007D713F5801F58BF11F5801F19D48B4269
:102C700070479B4270471CF5801F08D5BCF5801F2C
:102C8000F7D5994218BF704708BF904270474FF47C
:102C9000001C1CEB430F38BF1CEB410F01D29942C3
:102CA00070470FB40CBC03BCFFF7C1BE91EA030F21
:102CB00010B581F000413FF52BAC83F0004300F0EC
:102CC00009B8000010B591EA030F48BF83F0004334
:102CD0003FF51EAC841A71EB030C07D212198CF06D
:102CE000004C43EB0C03001B61EB0C01DFF8A4E18B
:102CF0004FEA1154A4EB135C1EEA430F18BF9EEA7F
:102D0000445F00F0B08023EA6E03524221EA04518E
:102D1000C3EB6E0338BF5B1EDCF1200E25D322FA15
:102D20000CFE10EB0E0043FA0CFE41EB0E01CCF151
:102D3000200E03FA0EFE10EB0E0051F10001CCF153
:102D4000200E29D412FA0EF201EB0451BDE8104016
:102D500058BF7047401C1CBFB2F1004F704700289D
:102D60000CBF491C20F00100704712EB020E43EB30
:102D7000030218BF4FF0010E4EEA4202ACF1200CE4
:102D8000DCF11E0E54D943FA0CFE10EB0E0051F18B
:102D9000FF31CCF11E0ED5D50EF1010E12FA0EFE4A
:102DA000404141EB010101EB445C5FEA5C5C10D9FE
:102DB00010EBDE7001EB045138BFBEF1004FBDE8EF
:102DC000104018BF704700280CBF491C20F00100BC
:102DD000704730D24FEAD42C11F5001124F400646E
:102DE0001BD0B1FA81F20B3AA41AA41ED2F120032F
:102DF000914030FA03F31943904001EBCC71002C61
:102E000001EB0451BDE81040A8BF704701F1C0417B
:102E10004FF0000001F000417047B0FA80F310FA63
:102E200003F100D110BDE41A173C4805C90AE4E7D4
:102E300001EB045110BD491001EB0451BDE81040F5
:102E40004FEA300002E04FF0000170474A0008BF2F
:102E50000042F8D0B2F5001F28BF704701F00041D2
:102E60004FF0000070479EEA445F07D011EA5E0F02
:102E7000BDE8104004BF002100207047BDE81040AD
:102E800070B5FFF789FE00BF40DFF63E83F00041DA
:102E9000104670470000E0FF4FF04070E1EE100A6E
:102EA0007047000000000000000001020304060754
:102EB00008090000D42E000800000020980000003F
:102EC000C40100086C2F0008980000207008000062
:102ED000E001000800000000000000000000000009
:102EE00000000000000000000000000000000000E2
:102EF00000000000000000000080564000000000BC
:102F000000409F4001000000100000000000000091
:102F10000024F4000000000000407F40000000009A
:102F200000000000000000000000000000000000A1
:102F30000000000000000000000000000000000091
:102F40000000000000000000000000000000000081
:102F50000000000000000000000000000000000071
:0C2F600000000000000000000000E03F46
:040000050800018965
:00000001FF
